{"@chainlink/contracts-ccip/src/v0.8/ccip/test/mocks/MockRouter.sol":{"MockCCIPRouter":{"abi":[{"inputs":[],"name":"InsufficientFeeTokenAmount","type":"error"},{"inputs":[{"internalType":"bytes","name":"encodedAddress","type":"bytes"}],"name":"InvalidAddress","type":"error"},{"inputs":[],"name":"InvalidExtraArgsTag","type":"error"},{"inputs":[],"name":"InvalidMsgValue","type":"error"},{"inputs":[],"name":"OnlyOffRamp","type":"error"},{"inputs":[{"internalType":"bytes","name":"error","type":"bytes"}],"name":"ReceiverError","type":"error"},{"inputs":[{"internalType":"uint64","name":"destChainSelector","type":"uint64"}],"name":"UnsupportedDestinationChain","type":"error"},{"anonymous":false,"inputs":[{"indexed":false,"internalType":"bytes32","name":"messageId","type":"bytes32"},{"indexed":false,"internalType":"uint64","name":"sourceChainSelector","type":"uint64"},{"indexed":false,"internalType":"address","name":"offRamp","type":"address"},{"indexed":false,"internalType":"bytes32","name":"calldataHash","type":"bytes32"}],"name":"MessageExecuted","type":"event"},{"anonymous":false,"inputs":[{"indexed":false,"internalType":"bool","name":"success","type":"bool"},{"indexed":false,"internalType":"bytes","name":"retData","type":"bytes"},{"indexed":false,"internalType":"uint256","name":"gasUsed","type":"uint256"}],"name":"MsgExecuted","type":"event"},{"inputs":[],"name":"DEFAULT_GAS_LIMIT","outputs":[{"internalType":"uint64","name":"","type":"uint64"}],"stateMutability":"view","type":"function"},{"inputs":[],"name":"GAS_FOR_CALL_EXACT_CHECK","outputs":[{"internalType":"uint16","name":"","type":"uint16"}],"stateMutability":"view","type":"function"},{"inputs":[{"internalType":"uint64","name":"","type":"uint64"},{"components":[{"internalType":"bytes","name":"receiver","type":"bytes"},{"internalType":"bytes","name":"data","type":"bytes"},{"components":[{"internalType":"address","name":"token","type":"address"},{"internalType":"uint256","name":"amount","type":"uint256"}],"internalType":"struct Client.EVMTokenAmount[]","name":"tokenAmounts","type":"tuple[]"},{"internalType":"address","name":"feeToken","type":"address"},{"internalType":"bytes","name":"extraArgs","type":"bytes"}],"internalType":"struct Client.EVM2AnyMessage","name":"message","type":"tuple"}],"name":"ccipSend","outputs":[{"internalType":"bytes32","name":"","type":"bytes32"}],"stateMutability":"payable","type":"function"},{"inputs":[{"internalType":"uint64","name":"","type":"uint64"},{"components":[{"internalType":"bytes","name":"receiver","type":"bytes"},{"internalType":"bytes","name":"data","type":"bytes"},{"components":[{"internalType":"address","name":"token","type":"address"},{"internalType":"uint256","name":"amount","type":"uint256"}],"internalType":"struct Client.EVMTokenAmount[]","name":"tokenAmounts","type":"tuple[]"},{"internalType":"address","name":"feeToken","type":"address"},{"internalType":"bytes","name":"extraArgs","type":"bytes"}],"internalType":"struct Client.EVM2AnyMessage","name":"","type":"tuple"}],"name":"getFee","outputs":[{"internalType":"uint256","name":"fee","type":"uint256"}],"stateMutability":"pure","type":"function"},{"inputs":[{"internalType":"uint64","name":"","type":"uint64"}],"name":"getOnRamp","outputs":[{"internalType":"address","name":"onRampAddress","type":"address"}],"stateMutability":"pure","type":"function"},{"inputs":[{"internalType":"uint64","name":"","type":"uint64"}],"name":"getSupportedTokens","outputs":[{"internalType":"address[]","name":"tokens","type":"address[]"}],"stateMutability":"pure","type":"function"},{"inputs":[{"internalType":"uint64","name":"","type":"uint64"}],"name":"isChainSupported","outputs":[{"internalType":"bool","name":"supported","type":"bool"}],"stateMutability":"pure","type":"function"},{"inputs":[{"internalType":"uint64","name":"","type":"uint64"},{"internalType":"address","name":"","type":"address"}],"name":"isOffRamp","outputs":[{"internalType":"bool","name":"","type":"bool"}],"stateMutability":"pure","type":"function"},{"inputs":[{"components":[{"internalType":"bytes32","name":"messageId","type":"bytes32"},{"internalType":"uint64","name":"sourceChainSelector","type":"uint64"},{"internalType":"bytes","name":"sender","type":"bytes"},{"internalType":"bytes","name":"data","type":"bytes"},{"components":[{"internalType":"address","name":"token","type":"address"},{"internalType":"uint256","name":"amount","type":"uint256"}],"internalType":"struct Client.EVMTokenAmount[]","name":"destTokenAmounts","type":"tuple[]"}],"internalType":"struct Client.Any2EVMMessage","name":"message","type":"tuple"},{"internalType":"uint16","name":"gasForCallExactCheck","type":"uint16"},{"internalType":"uint256","name":"gasLimit","type":"uint256"},{"internalType":"address","name":"receiver","type":"address"}],"name":"routeMessage","outputs":[{"internalType":"bool","name":"success","type":"bool"},{"internalType":"bytes","name":"retData","type":"bytes"},{"internalType":"uint256","name":"gasUsed","type":"uint256"}],"stateMutability":"nonpayable","type":"function"}],"evm":{"bytecode":{"linkReferences":{},"object":"608060405234801561001057600080fd5b506116b8806100206000396000f3fe6080604052600436106100965760003560e01c8063a48a905811610069578063d6be695a1161004e578063d6be695a146101a0578063ee18e0d3146101d0578063fbca3b74146101f957600080fd5b8063a48a905814610143578063a8d87a3b1461016457600080fd5b806320487ded1461009b5780633cf97983146100ce57806383826b2b146100fd57806396f4e9f914610130575b600080fd5b3480156100a757600080fd5b506100bb6100b6366004610e4b565b610234565b6040519081526020015b60405180910390f35b3480156100da57600080fd5b506100ee6100e9366004610f60565b61023d565b6040516100c593929190611021565b34801561010957600080fd5b5061012061011836600461104c565b600192915050565b60405190151581526020016100c5565b6100bb61013e36600461107f565b610267565b34801561014f57600080fd5b5061012061015e3660046110cd565b50600190565b34801561017057600080fd5b5061018861017f3660046110cd565b5063499602d290565b6040516001600160a01b0390911681526020016100c5565b3480156101ac57600080fd5b506101b762030d4081565b60405167ffffffffffffffff90911681526020016100c5565b3480156101dc57600080fd5b506101e661138881565b60405161ffff90911681526020016100c5565b34801561020557600080fd5b506102276102143660046110cd565b5060408051600081526020810190915290565b6040516100c591906110e8565b60005b92915050565b600060608161025661024e88611135565b87878761052c565b9250925092505b9450945094915050565b600061027382806111e2565b90506020146102c35761028682806111e2565b6040517f370d875f0000000000000000000000000000000000000000000000000000000081526004016102ba929190611259565b60405180910390fd5b60006102cf83806111e2565b8101906102dc919061126d565b90506001600160a01b038111806102f35750600a81105b156103025761028683806111e2565b80600061031a61031560808701876111e2565b6106a3565b600001519050600085604051602001610333919061131d565b60408051808303601f19018152828252805160209182012060a08401835280845267de41ba4fc9d91ad98285015282513381840152835180820384018152908401845292840192909252909250600091906060820190610395908a018a6111e2565b8080601f0160208091040260200160405190810160405280939291908181526020018383808284376000920191909152505050908252506020016103dc60408a018a61141d565b808060200260200160405190810160405280939291908181526020016000905b828210156104285761041960408302860136819003810190611467565b815260200190600101906103fc565b5050505050815250905060005b610442604089018961141d565b90508110156104ce576104be338661045d60408c018c61141d565b8581811061046d5761046d611483565b905060400201602001358b8060400190610487919061141d565b8681811061049757610497611483565b6104ad9260206040909202019081019150611499565b6001600160a01b031692919061075f565b6104c7816114b4565b9050610435565b506000806104e083611388878961052c565b50915091508161051e57806040517f0a8d6e8c0000000000000000000000000000000000000000000000000000000081526004016102ba91906114db565b509198975050505050505050565b60006060816001600160a01b0384163b158061057857506105766001600160a01b0385167f85572ffb000000000000000000000000000000000000000000000000000000006107d8565b155b15610598575050604080516020810190915260008082526001925061025d565b60006385572ffb60e01b886040516024016105b391906114ee565b60408051601f198184030181529190526020810180516001600160e01b03166001600160e01b03199093169290921790915290506105f58186888a60846107f4565b60405192965090945092507fa8b0355886b5b7a28bb97e4f0a24feb172618407402721c4012d8b7c6433102f9061063190869086908690611021565b60405180910390a187516020808a01518351848301206040805194855267ffffffffffffffff90921692840192909252339083015260608201527f9b877de93ea9895756e337442c657f95a34fc68e7eb988bdfa693d5be83016b69060800160405180910390a1509450945094915050565b60408051602081019091526000815260008290036106d25750604080516020810190915262030d408152610237565b7f97a657c9000000000000000000000000000000000000000000000000000000006106fd83856115a8565b6001600160e01b0319161461073e576040517f5247fdce00000000000000000000000000000000000000000000000000000000815260040160405180910390fd5b61074b82600481866115d8565b8101906107589190611602565b9392505050565b604080516001600160a01b0385811660248301528416604482015260648082018490528251808303909101815260849091019091526020810180516001600160e01b03167f23b872dd000000000000000000000000000000000000000000000000000000001790526107d290859061091a565b50505050565b60006107e383610a04565b801561075857506107588383610a37565b6000606060008361ffff1667ffffffffffffffff81111561081757610817610c74565b6040519080825280601f01601f191660200182016040528015610841576020820181803683370190505b509150863b610874577f0c3b563c0000000000000000000000000000000000000000000000000000000060005260046000fd5b5a858110156108a7577fafa32a2c0000000000000000000000000000000000000000000000000000000060005260046000fd5b85900360408104810387106108e0577f37c3be290000000000000000000000000000000000000000000000000000000060005260046000fd5b505a6000808a5160208c0160008c8cf193505a900390503d848111156109035750835b808352806000602085013e50955095509592505050565b600061096f826040518060400160405280602081526020017f5361666545524332303a206c6f772d6c6576656c2063616c6c206661696c6564815250856001600160a01b0316610ac09092919063ffffffff16565b8051909150156109ff578080602001905181019061098d9190611644565b6109ff5760405162461bcd60e51b815260206004820152602a60248201527f5361666545524332303a204552433230206f7065726174696f6e20646964206e60448201527f6f7420737563636565640000000000000000000000000000000000000000000060648201526084016102ba565b505050565b6000610a17826301ffc9a760e01b610a37565b80156102375750610a30826001600160e01b0319610a37565b1592915050565b604080516001600160e01b03198316602480830191909152825180830390910181526044909101909152602080820180516001600160e01b03166301ffc9a760e01b178152825160009392849283928392918391908a617530fa92503d91506000519050828015610aa9575060208210155b8015610ab55750600081115b979650505050505050565b6060610acf8484600085610ad7565b949350505050565b606082471015610b4f5760405162461bcd60e51b815260206004820152602660248201527f416464726573733a20696e73756666696369656e742062616c616e636520666f60448201527f722063616c6c000000000000000000000000000000000000000000000000000060648201526084016102ba565b600080866001600160a01b03168587604051610b6b9190611666565b60006040518083038185875af1925050503d8060008114610ba8576040519150601f19603f3d011682016040523d82523d6000602084013e610bad565b606091505b5091509150610ab58783838760608315610c28578251600003610c21576001600160a01b0385163b610c215760405162461bcd60e51b815260206004820152601d60248201527f416464726573733a2063616c6c20746f206e6f6e2d636f6e747261637400000060448201526064016102ba565b5081610acf565b610acf8383815115610c3d5781518083602001fd5b8060405162461bcd60e51b81526004016102ba91906114db565b803567ffffffffffffffff81168114610c6f57600080fd5b919050565b634e487b7160e01b600052604160045260246000fd5b60405160a0810167ffffffffffffffff81118282101715610cad57610cad610c74565b60405290565b604051601f8201601f1916810167ffffffffffffffff81118282101715610cdc57610cdc610c74565b604052919050565b600082601f830112610cf557600080fd5b813567ffffffffffffffff811115610d0f57610d0f610c74565b610d22601f8201601f1916602001610cb3565b818152846020838601011115610d3757600080fd5b816020850160208301376000918101602001919091529392505050565b80356001600160a01b0381168114610c6f57600080fd5b600060408284031215610d7d57600080fd5b6040516040810181811067ffffffffffffffff82111715610da057610da0610c74565b604052905080610daf83610d54565b8152602083013560208201525092915050565b600082601f830112610dd357600080fd5b8135602067ffffffffffffffff821115610def57610def610c74565b610dfd818360051b01610cb3565b82815260069290921b84018101918181019086841115610e1c57600080fd5b8286015b84811015610e4057610e328882610d6b565b835291830191604001610e20565b509695505050505050565b60008060408385031215610e5e57600080fd5b610e6783610c57565b9150602083013567ffffffffffffffff80821115610e8457600080fd5b9084019060a08287031215610e9857600080fd5b610ea0610c8a565b823582811115610eaf57600080fd5b610ebb88828601610ce4565b825250602083013582811115610ed057600080fd5b610edc88828601610ce4565b602083015250604083013582811115610ef457600080fd5b610f0088828601610dc2565b604083015250610f1260608401610d54565b6060820152608083013582811115610f2957600080fd5b610f3588828601610ce4565b6080830152508093505050509250929050565b600060a08284031215610f5a57600080fd5b50919050565b60008060008060808587031215610f7657600080fd5b843567ffffffffffffffff811115610f8d57600080fd5b610f9987828801610f48565b945050602085013561ffff81168114610fb157600080fd5b925060408501359150610fc660608601610d54565b905092959194509250565b60005b83811015610fec578181015183820152602001610fd4565b50506000910152565b6000815180845261100d816020860160208601610fd1565b601f01601f19169290920160200192915050565b831515815260606020820152600061103c6060830185610ff5565b9050826040830152949350505050565b6000806040838503121561105f57600080fd5b61106883610c57565b915061107660208401610d54565b90509250929050565b6000806040838503121561109257600080fd5b61109b83610c57565b9150602083013567ffffffffffffffff8111156110b757600080fd5b6110c385828601610f48565b9150509250929050565b6000602082840312156110df57600080fd5b61075882610c57565b6020808252825182820181905260009190848201906040850190845b818110156111295783516001600160a01b031683529284019291840191600101611104565b50909695505050505050565b600060a0823603121561114757600080fd5b61114f610c8a565b8235815261115f60208401610c57565b6020820152604083013567ffffffffffffffff8082111561117f57600080fd5b61118b36838701610ce4565b604084015260608501359150808211156111a457600080fd5b6111b036838701610ce4565b606084015260808501359150808211156111c957600080fd5b506111d636828601610dc2565b60808301525092915050565b6000808335601e198436030181126111f957600080fd5b83018035915067ffffffffffffffff82111561121457600080fd5b60200191503681900382131561122957600080fd5b9250929050565b81835281816020850137506000828201602090810191909152601f909101601f19169091010190565b602081526000610acf602083018486611230565b60006020828403121561127f57600080fd5b5035919050565b6000808335601e1984360301811261129d57600080fd5b830160208101925035905067ffffffffffffffff8111156112bd57600080fd5b80360382131561122957600080fd5b8183526000602080850194508260005b85811015611312576001600160a01b036112f583610d54565b1687528183013583880152604096870196909101906001016112dc565b509495945050505050565b60208152600061132d8384611286565b60a0602085015261134260c085018284611230565b9150506113526020850185611286565b601f198086850301604087015261136a848385611230565b935060408701359250601e1987360301831261138557600080fd5b60209287019283019235915067ffffffffffffffff8211156113a657600080fd5b8160061b36038313156113b857600080fd5b808685030160608701526113cd8483856112cc565b93506113db60608801610d54565b6001600160a01b038116608088015292506113f96080880188611286565b93509150808685030160a087015250611413838383611230565b9695505050505050565b6000808335601e1984360301811261143457600080fd5b83018035915067ffffffffffffffff82111561144f57600080fd5b6020019150600681901b360382131561122957600080fd5b60006040828403121561147957600080fd5b6107588383610d6b565b634e487b7160e01b600052603260045260246000fd5b6000602082840312156114ab57600080fd5b61075882610d54565b6000600182016114d457634e487b7160e01b600052601160045260246000fd5b5060010190565b6020815260006107586020830184610ff5565b6000602080835283518184015280840151604067ffffffffffffffff82168186015280860151915060a0606086015261152a60c0860183610ff5565b91506060860151601f19808785030160808801526115488483610ff5565b608089015188820390920160a089015281518082529186019450600092508501905b8083101561159c57845180516001600160a01b031683528601518683015293850193600192909201919083019061156a565b50979650505050505050565b6001600160e01b031981358181169160048510156115d05780818660040360031b1b83161692505b505092915050565b600080858511156115e857600080fd5b838611156115f557600080fd5b5050820193919092039150565b60006020828403121561161457600080fd5b6040516020810181811067ffffffffffffffff8211171561163757611637610c74565b6040529135825250919050565b60006020828403121561165657600080fd5b8151801515811461075857600080fd5b60008251611678818460208701610fd1565b919091019291505056fea2646970667358221220ee0b05496d3ab3acb216137af420e5597da8a8b45382c84fe8dcbfa20691d72864736f6c63430008130033","opcodes":"PUSH1 0x80 PUSH1 0x40 MSTORE CALLVALUE DUP1 ISZERO PUSH2 0x10 JUMPI PUSH1 0x0 DUP1 REVERT JUMPDEST POP PUSH2 0x16B8 DUP1 PUSH2 0x20 PUSH1 0x0 CODECOPY PUSH1 0x0 RETURN INVALID PUSH1 0x80 PUSH1 0x40 MSTORE PUSH1 0x4 CALLDATASIZE LT PUSH2 0x96 JUMPI PUSH1 0x0 CALLDATALOAD PUSH1 0xE0 SHR DUP1 PUSH4 0xA48A9058 GT PUSH2 0x69 JUMPI DUP1 PUSH4 0xD6BE695A GT PUSH2 0x4E JUMPI DUP1 PUSH4 0xD6BE695A EQ PUSH2 0x1A0 JUMPI DUP1 PUSH4 0xEE18E0D3 EQ PUSH2 0x1D0 JUMPI DUP1 PUSH4 0xFBCA3B74 EQ PUSH2 0x1F9 JUMPI PUSH1 0x0 DUP1 REVERT JUMPDEST DUP1 PUSH4 0xA48A9058 EQ PUSH2 0x143 JUMPI DUP1 PUSH4 0xA8D87A3B EQ PUSH2 0x164 JUMPI PUSH1 0x0 DUP1 REVERT JUMPDEST DUP1 PUSH4 0x20487DED EQ PUSH2 0x9B JUMPI DUP1 PUSH4 0x3CF97983 EQ PUSH2 0xCE JUMPI DUP1 PUSH4 0x83826B2B EQ PUSH2 0xFD JUMPI DUP1 PUSH4 0x96F4E9F9 EQ PUSH2 0x130 JUMPI JUMPDEST PUSH1 0x0 DUP1 REVERT JUMPDEST CALLVALUE DUP1 ISZERO PUSH2 0xA7 JUMPI PUSH1 0x0 DUP1 REVERT JUMPDEST POP PUSH2 0xBB PUSH2 0xB6 CALLDATASIZE PUSH1 0x4 PUSH2 0xE4B JUMP JUMPDEST PUSH2 0x234 JUMP JUMPDEST PUSH1 0x40 MLOAD SWAP1 DUP2 MSTORE PUSH1 0x20 ADD JUMPDEST PUSH1 0x40 MLOAD DUP1 SWAP2 SUB SWAP1 RETURN JUMPDEST CALLVALUE DUP1 ISZERO PUSH2 0xDA JUMPI PUSH1 0x0 DUP1 REVERT JUMPDEST POP PUSH2 0xEE PUSH2 0xE9 CALLDATASIZE PUSH1 0x4 PUSH2 0xF60 JUMP JUMPDEST PUSH2 0x23D JUMP JUMPDEST PUSH1 0x40 MLOAD PUSH2 0xC5 SWAP4 SWAP3 SWAP2 SWAP1 PUSH2 0x1021 JUMP JUMPDEST CALLVALUE DUP1 ISZERO PUSH2 0x109 JUMPI PUSH1 0x0 DUP1 REVERT JUMPDEST POP PUSH2 0x120 PUSH2 0x118 CALLDATASIZE PUSH1 0x4 PUSH2 0x104C JUMP JUMPDEST PUSH1 0x1 SWAP3 SWAP2 POP POP JUMP JUMPDEST PUSH1 0x40 MLOAD SWAP1 ISZERO ISZERO DUP2 MSTORE PUSH1 0x20 ADD PUSH2 0xC5 JUMP JUMPDEST PUSH2 0xBB PUSH2 0x13E CALLDATASIZE PUSH1 0x4 PUSH2 0x107F JUMP JUMPDEST PUSH2 0x267 JUMP JUMPDEST CALLVALUE DUP1 ISZERO PUSH2 0x14F JUMPI PUSH1 0x0 DUP1 REVERT JUMPDEST POP PUSH2 0x120 PUSH2 0x15E CALLDATASIZE PUSH1 0x4 PUSH2 0x10CD JUMP JUMPDEST POP PUSH1 0x1 SWAP1 JUMP JUMPDEST CALLVALUE DUP1 ISZERO PUSH2 0x170 JUMPI PUSH1 0x0 DUP1 REVERT JUMPDEST POP PUSH2 0x188 PUSH2 0x17F CALLDATASIZE PUSH1 0x4 PUSH2 0x10CD JUMP JUMPDEST POP PUSH4 0x499602D2 SWAP1 JUMP JUMPDEST PUSH1 0x40 MLOAD PUSH1 0x1 PUSH1 0x1 PUSH1 0xA0 SHL SUB SWAP1 SWAP2 AND DUP2 MSTORE PUSH1 0x20 ADD PUSH2 0xC5 JUMP JUMPDEST CALLVALUE DUP1 ISZERO PUSH2 0x1AC JUMPI PUSH1 0x0 DUP1 REVERT JUMPDEST POP PUSH2 0x1B7 PUSH3 0x30D40 DUP2 JUMP JUMPDEST PUSH1 0x40 MLOAD PUSH8 0xFFFFFFFFFFFFFFFF SWAP1 SWAP2 AND DUP2 MSTORE PUSH1 0x20 ADD PUSH2 0xC5 JUMP JUMPDEST CALLVALUE DUP1 ISZERO PUSH2 0x1DC JUMPI PUSH1 0x0 DUP1 REVERT JUMPDEST POP PUSH2 0x1E6 PUSH2 0x1388 DUP2 JUMP JUMPDEST PUSH1 0x40 MLOAD PUSH2 0xFFFF SWAP1 SWAP2 AND DUP2 MSTORE PUSH1 0x20 ADD PUSH2 0xC5 JUMP JUMPDEST CALLVALUE DUP1 ISZERO PUSH2 0x205 JUMPI PUSH1 0x0 DUP1 REVERT JUMPDEST POP PUSH2 0x227 PUSH2 0x214 CALLDATASIZE PUSH1 0x4 PUSH2 0x10CD JUMP JUMPDEST POP PUSH1 0x40 DUP1 MLOAD PUSH1 0x0 DUP2 MSTORE PUSH1 0x20 DUP2 ADD SWAP1 SWAP2 MSTORE SWAP1 JUMP JUMPDEST PUSH1 0x40 MLOAD PUSH2 0xC5 SWAP2 SWAP1 PUSH2 0x10E8 JUMP JUMPDEST PUSH1 0x0 JUMPDEST SWAP3 SWAP2 POP POP JUMP JUMPDEST PUSH1 0x0 PUSH1 0x60 DUP2 PUSH2 0x256 PUSH2 0x24E DUP9 PUSH2 0x1135 JUMP JUMPDEST DUP8 DUP8 DUP8 PUSH2 0x52C JUMP JUMPDEST SWAP3 POP SWAP3 POP SWAP3 POP JUMPDEST SWAP5 POP SWAP5 POP SWAP5 SWAP2 POP POP JUMP JUMPDEST PUSH1 0x0 PUSH2 0x273 DUP3 DUP1 PUSH2 0x11E2 JUMP JUMPDEST SWAP1 POP PUSH1 0x20 EQ PUSH2 0x2C3 JUMPI PUSH2 0x286 DUP3 DUP1 PUSH2 0x11E2 JUMP JUMPDEST PUSH1 0x40 MLOAD PUSH32 0x370D875F00000000000000000000000000000000000000000000000000000000 DUP2 MSTORE PUSH1 0x4 ADD PUSH2 0x2BA SWAP3 SWAP2 SWAP1 PUSH2 0x1259 JUMP JUMPDEST PUSH1 0x40 MLOAD DUP1 SWAP2 SUB SWAP1 REVERT JUMPDEST PUSH1 0x0 PUSH2 0x2CF DUP4 DUP1 PUSH2 0x11E2 JUMP JUMPDEST DUP2 ADD SWAP1 PUSH2 0x2DC SWAP2 SWAP1 PUSH2 0x126D JUMP JUMPDEST SWAP1 POP PUSH1 0x1 PUSH1 0x1 PUSH1 0xA0 SHL SUB DUP2 GT DUP1 PUSH2 0x2F3 JUMPI POP PUSH1 0xA DUP2 LT JUMPDEST ISZERO PUSH2 0x302 JUMPI PUSH2 0x286 DUP4 DUP1 PUSH2 0x11E2 JUMP JUMPDEST DUP1 PUSH1 0x0 PUSH2 0x31A PUSH2 0x315 PUSH1 0x80 DUP8 ADD DUP8 PUSH2 0x11E2 JUMP JUMPDEST PUSH2 0x6A3 JUMP JUMPDEST PUSH1 0x0 ADD MLOAD SWAP1 POP PUSH1 0x0 DUP6 PUSH1 0x40 MLOAD PUSH1 0x20 ADD PUSH2 0x333 SWAP2 SWAP1 PUSH2 0x131D JUMP JUMPDEST PUSH1 0x40 DUP1 MLOAD DUP1 DUP4 SUB PUSH1 0x1F NOT ADD DUP2 MSTORE DUP3 DUP3 MSTORE DUP1 MLOAD PUSH1 0x20 SWAP2 DUP3 ADD KECCAK256 PUSH1 0xA0 DUP5 ADD DUP4 MSTORE DUP1 DUP5 MSTORE PUSH8 0xDE41BA4FC9D91AD9 DUP3 DUP6 ADD MSTORE DUP3 MLOAD CALLER DUP2 DUP5 ADD MSTORE DUP4 MLOAD DUP1 DUP3 SUB DUP5 ADD DUP2 MSTORE SWAP1 DUP5 ADD DUP5 MSTORE SWAP3 DUP5 ADD SWAP3 SWAP1 SWAP3 MSTORE SWAP1 SWAP3 POP PUSH1 0x0 SWAP2 SWAP1 PUSH1 0x60 DUP3 ADD SWAP1 PUSH2 0x395 SWAP1 DUP11 ADD DUP11 PUSH2 0x11E2 JUMP JUMPDEST DUP1 DUP1 PUSH1 0x1F ADD PUSH1 0x20 DUP1 SWAP2 DIV MUL PUSH1 0x20 ADD PUSH1 0x40 MLOAD SWAP1 DUP2 ADD PUSH1 0x40 MSTORE DUP1 SWAP4 SWAP3 SWAP2 SWAP1 DUP2 DUP2 MSTORE PUSH1 0x20 ADD DUP4 DUP4 DUP1 DUP3 DUP5 CALLDATACOPY PUSH1 0x0 SWAP3 ADD SWAP2 SWAP1 SWAP2 MSTORE POP POP POP SWAP1 DUP3 MSTORE POP PUSH1 0x20 ADD PUSH2 0x3DC PUSH1 0x40 DUP11 ADD DUP11 PUSH2 0x141D JUMP JUMPDEST DUP1 DUP1 PUSH1 0x20 MUL PUSH1 0x20 ADD PUSH1 0x40 MLOAD SWAP1 DUP2 ADD PUSH1 0x40 MSTORE DUP1 SWAP4 SWAP3 SWAP2 SWAP1 DUP2 DUP2 MSTORE PUSH1 0x20 ADD PUSH1 0x0 SWAP1 JUMPDEST DUP3 DUP3 LT ISZERO PUSH2 0x428 JUMPI PUSH2 0x419 PUSH1 0x40 DUP4 MUL DUP7 ADD CALLDATASIZE DUP2 SWAP1 SUB DUP2 ADD SWAP1 PUSH2 0x1467 JUMP JUMPDEST DUP2 MSTORE PUSH1 0x20 ADD SWAP1 PUSH1 0x1 ADD SWAP1 PUSH2 0x3FC JUMP JUMPDEST POP POP POP POP POP DUP2 MSTORE POP SWAP1 POP PUSH1 0x0 JUMPDEST PUSH2 0x442 PUSH1 0x40 DUP10 ADD DUP10 PUSH2 0x141D JUMP JUMPDEST SWAP1 POP DUP2 LT ISZERO PUSH2 0x4CE JUMPI PUSH2 0x4BE CALLER DUP7 PUSH2 0x45D PUSH1 0x40 DUP13 ADD DUP13 PUSH2 0x141D JUMP JUMPDEST DUP6 DUP2 DUP2 LT PUSH2 0x46D JUMPI PUSH2 0x46D PUSH2 0x1483 JUMP JUMPDEST SWAP1 POP PUSH1 0x40 MUL ADD PUSH1 0x20 ADD CALLDATALOAD DUP12 DUP1 PUSH1 0x40 ADD SWAP1 PUSH2 0x487 SWAP2 SWAP1 PUSH2 0x141D JUMP JUMPDEST DUP7 DUP2 DUP2 LT PUSH2 0x497 JUMPI PUSH2 0x497 PUSH2 0x1483 JUMP JUMPDEST PUSH2 0x4AD SWAP3 PUSH1 0x20 PUSH1 0x40 SWAP1 SWAP3 MUL ADD SWAP1 DUP2 ADD SWAP2 POP PUSH2 0x1499 JUMP JUMPDEST PUSH1 0x1 PUSH1 0x1 PUSH1 0xA0 SHL SUB AND SWAP3 SWAP2 SWAP1 PUSH2 0x75F JUMP JUMPDEST PUSH2 0x4C7 DUP2 PUSH2 0x14B4 JUMP JUMPDEST SWAP1 POP PUSH2 0x435 JUMP JUMPDEST POP PUSH1 0x0 DUP1 PUSH2 0x4E0 DUP4 PUSH2 0x1388 DUP8 DUP10 PUSH2 0x52C JUMP JUMPDEST POP SWAP2 POP SWAP2 POP DUP2 PUSH2 0x51E JUMPI DUP1 PUSH1 0x40 MLOAD PUSH32 0xA8D6E8C00000000000000000000000000000000000000000000000000000000 DUP2 MSTORE PUSH1 0x4 ADD PUSH2 0x2BA SWAP2 SWAP1 PUSH2 0x14DB JUMP JUMPDEST POP SWAP2 SWAP9 SWAP8 POP POP POP POP POP POP POP POP JUMP JUMPDEST PUSH1 0x0 PUSH1 0x60 DUP2 PUSH1 0x1 PUSH1 0x1 PUSH1 0xA0 SHL SUB DUP5 AND EXTCODESIZE ISZERO DUP1 PUSH2 0x578 JUMPI POP PUSH2 0x576 PUSH1 0x1 PUSH1 0x1 PUSH1 0xA0 SHL SUB DUP6 AND PUSH32 0x85572FFB00000000000000000000000000000000000000000000000000000000 PUSH2 0x7D8 JUMP JUMPDEST ISZERO JUMPDEST ISZERO PUSH2 0x598 JUMPI POP POP PUSH1 0x40 DUP1 MLOAD PUSH1 0x20 DUP2 ADD SWAP1 SWAP2 MSTORE PUSH1 0x0 DUP1 DUP3 MSTORE PUSH1 0x1 SWAP3 POP PUSH2 0x25D JUMP JUMPDEST PUSH1 0x0 PUSH4 0x85572FFB PUSH1 0xE0 SHL DUP9 PUSH1 0x40 MLOAD PUSH1 0x24 ADD PUSH2 0x5B3 SWAP2 SWAP1 PUSH2 0x14EE JUMP JUMPDEST PUSH1 0x40 DUP1 MLOAD PUSH1 0x1F NOT DUP2 DUP5 SUB ADD DUP2 MSTORE SWAP2 SWAP1 MSTORE PUSH1 0x20 DUP2 ADD DUP1 MLOAD PUSH1 0x1 PUSH1 0x1 PUSH1 0xE0 SHL SUB AND PUSH1 0x1 PUSH1 0x1 PUSH1 0xE0 SHL SUB NOT SWAP1 SWAP4 AND SWAP3 SWAP1 SWAP3 OR SWAP1 SWAP2 MSTORE SWAP1 POP PUSH2 0x5F5 DUP2 DUP7 DUP9 DUP11 PUSH1 0x84 PUSH2 0x7F4 JUMP JUMPDEST PUSH1 0x40 MLOAD SWAP3 SWAP7 POP SWAP1 SWAP5 POP SWAP3 POP PUSH32 0xA8B0355886B5B7A28BB97E4F0A24FEB172618407402721C4012D8B7C6433102F SWAP1 PUSH2 0x631 SWAP1 DUP7 SWAP1 DUP7 SWAP1 DUP7 SWAP1 PUSH2 0x1021 JUMP JUMPDEST PUSH1 0x40 MLOAD DUP1 SWAP2 SUB SWAP1 LOG1 DUP8 MLOAD PUSH1 0x20 DUP1 DUP11 ADD MLOAD DUP4 MLOAD DUP5 DUP4 ADD KECCAK256 PUSH1 0x40 DUP1 MLOAD SWAP5 DUP6 MSTORE PUSH8 0xFFFFFFFFFFFFFFFF SWAP1 SWAP3 AND SWAP3 DUP5 ADD SWAP3 SWAP1 SWAP3 MSTORE CALLER SWAP1 DUP4 ADD MSTORE PUSH1 0x60 DUP3 ADD MSTORE PUSH32 0x9B877DE93EA9895756E337442C657F95A34FC68E7EB988BDFA693D5BE83016B6 SWAP1 PUSH1 0x80 ADD PUSH1 0x40 MLOAD DUP1 SWAP2 SUB SWAP1 LOG1 POP SWAP5 POP SWAP5 POP SWAP5 SWAP2 POP POP JUMP JUMPDEST PUSH1 0x40 DUP1 MLOAD PUSH1 0x20 DUP2 ADD SWAP1 SWAP2 MSTORE PUSH1 0x0 DUP2 MSTORE PUSH1 0x0 DUP3 SWAP1 SUB PUSH2 0x6D2 JUMPI POP PUSH1 0x40 DUP1 MLOAD PUSH1 0x20 DUP2 ADD SWAP1 SWAP2 MSTORE PUSH3 0x30D40 DUP2 MSTORE PUSH2 0x237 JUMP JUMPDEST PUSH32 0x97A657C900000000000000000000000000000000000000000000000000000000 PUSH2 0x6FD DUP4 DUP6 PUSH2 0x15A8 JUMP JUMPDEST PUSH1 0x1 PUSH1 0x1 PUSH1 0xE0 SHL SUB NOT AND EQ PUSH2 0x73E JUMPI PUSH1 0x40 MLOAD PUSH32 0x5247FDCE00000000000000000000000000000000000000000000000000000000 DUP2 MSTORE PUSH1 0x4 ADD PUSH1 0x40 MLOAD DUP1 SWAP2 SUB SWAP1 REVERT JUMPDEST PUSH2 0x74B DUP3 PUSH1 0x4 DUP2 DUP7 PUSH2 0x15D8 JUMP JUMPDEST DUP2 ADD SWAP1 PUSH2 0x758 SWAP2 SWAP1 PUSH2 0x1602 JUMP JUMPDEST SWAP4 SWAP3 POP POP POP JUMP JUMPDEST PUSH1 0x40 DUP1 MLOAD PUSH1 0x1 PUSH1 0x1 PUSH1 0xA0 SHL SUB DUP6 DUP2 AND PUSH1 0x24 DUP4 ADD MSTORE DUP5 AND PUSH1 0x44 DUP3 ADD MSTORE PUSH1 0x64 DUP1 DUP3 ADD DUP5 SWAP1 MSTORE DUP3 MLOAD DUP1 DUP4 SUB SWAP1 SWAP2 ADD DUP2 MSTORE PUSH1 0x84 SWAP1 SWAP2 ADD SWAP1 SWAP2 MSTORE PUSH1 0x20 DUP2 ADD DUP1 MLOAD PUSH1 0x1 PUSH1 0x1 PUSH1 0xE0 SHL SUB AND PUSH32 0x23B872DD00000000000000000000000000000000000000000000000000000000 OR SWAP1 MSTORE PUSH2 0x7D2 SWAP1 DUP6 SWAP1 PUSH2 0x91A JUMP JUMPDEST POP POP POP POP JUMP JUMPDEST PUSH1 0x0 PUSH2 0x7E3 DUP4 PUSH2 0xA04 JUMP JUMPDEST DUP1 ISZERO PUSH2 0x758 JUMPI POP PUSH2 0x758 DUP4 DUP4 PUSH2 0xA37 JUMP JUMPDEST PUSH1 0x0 PUSH1 0x60 PUSH1 0x0 DUP4 PUSH2 0xFFFF AND PUSH8 0xFFFFFFFFFFFFFFFF DUP2 GT ISZERO PUSH2 0x817 JUMPI PUSH2 0x817 PUSH2 0xC74 JUMP JUMPDEST PUSH1 0x40 MLOAD SWAP1 DUP1 DUP3 MSTORE DUP1 PUSH1 0x1F ADD PUSH1 0x1F NOT AND PUSH1 0x20 ADD DUP3 ADD PUSH1 0x40 MSTORE DUP1 ISZERO PUSH2 0x841 JUMPI PUSH1 0x20 DUP3 ADD DUP2 DUP1 CALLDATASIZE DUP4 CALLDATACOPY ADD SWAP1 POP JUMPDEST POP SWAP2 POP DUP7 EXTCODESIZE PUSH2 0x874 JUMPI PUSH32 0xC3B563C00000000000000000000000000000000000000000000000000000000 PUSH1 0x0 MSTORE PUSH1 0x4 PUSH1 0x0 REVERT JUMPDEST GAS DUP6 DUP2 LT ISZERO PUSH2 0x8A7 JUMPI PUSH32 0xAFA32A2C00000000000000000000000000000000000000000000000000000000 PUSH1 0x0 MSTORE PUSH1 0x4 PUSH1 0x0 REVERT JUMPDEST DUP6 SWAP1 SUB PUSH1 0x40 DUP2 DIV DUP2 SUB DUP8 LT PUSH2 0x8E0 JUMPI PUSH32 0x37C3BE2900000000000000000000000000000000000000000000000000000000 PUSH1 0x0 MSTORE PUSH1 0x4 PUSH1 0x0 REVERT JUMPDEST POP GAS PUSH1 0x0 DUP1 DUP11 MLOAD PUSH1 0x20 DUP13 ADD PUSH1 0x0 DUP13 DUP13 CALL SWAP4 POP GAS SWAP1 SUB SWAP1 POP RETURNDATASIZE DUP5 DUP2 GT ISZERO PUSH2 0x903 JUMPI POP DUP4 JUMPDEST DUP1 DUP4 MSTORE DUP1 PUSH1 0x0 PUSH1 0x20 DUP6 ADD RETURNDATACOPY POP SWAP6 POP SWAP6 POP SWAP6 SWAP3 POP POP POP JUMP JUMPDEST PUSH1 0x0 PUSH2 0x96F DUP3 PUSH1 0x40 MLOAD DUP1 PUSH1 0x40 ADD PUSH1 0x40 MSTORE DUP1 PUSH1 0x20 DUP2 MSTORE PUSH1 0x20 ADD PUSH32 0x5361666545524332303A206C6F772D6C6576656C2063616C6C206661696C6564 DUP2 MSTORE POP DUP6 PUSH1 0x1 PUSH1 0x1 PUSH1 0xA0 SHL SUB AND PUSH2 0xAC0 SWAP1 SWAP3 SWAP2 SWAP1 PUSH4 0xFFFFFFFF AND JUMP JUMPDEST DUP1 MLOAD SWAP1 SWAP2 POP ISZERO PUSH2 0x9FF JUMPI DUP1 DUP1 PUSH1 0x20 ADD SWAP1 MLOAD DUP2 ADD SWAP1 PUSH2 0x98D SWAP2 SWAP1 PUSH2 0x1644 JUMP JUMPDEST PUSH2 0x9FF JUMPI PUSH1 0x40 MLOAD PUSH3 0x461BCD PUSH1 0xE5 SHL DUP2 MSTORE PUSH1 0x20 PUSH1 0x4 DUP3 ADD MSTORE PUSH1 0x2A PUSH1 0x24 DUP3 ADD MSTORE PUSH32 0x5361666545524332303A204552433230206F7065726174696F6E20646964206E PUSH1 0x44 DUP3 ADD MSTORE PUSH32 0x6F74207375636365656400000000000000000000000000000000000000000000 PUSH1 0x64 DUP3 ADD MSTORE PUSH1 0x84 ADD PUSH2 0x2BA JUMP JUMPDEST POP POP POP JUMP JUMPDEST PUSH1 0x0 PUSH2 0xA17 DUP3 PUSH4 0x1FFC9A7 PUSH1 0xE0 SHL PUSH2 0xA37 JUMP JUMPDEST DUP1 ISZERO PUSH2 0x237 JUMPI POP PUSH2 0xA30 DUP3 PUSH1 0x1 PUSH1 0x1 PUSH1 0xE0 SHL SUB NOT PUSH2 0xA37 JUMP JUMPDEST ISZERO SWAP3 SWAP2 POP POP JUMP JUMPDEST PUSH1 0x40 DUP1 MLOAD PUSH1 0x1 PUSH1 0x1 PUSH1 0xE0 SHL SUB NOT DUP4 AND PUSH1 0x24 DUP1 DUP4 ADD SWAP2 SWAP1 SWAP2 MSTORE DUP3 MLOAD DUP1 DUP4 SUB SWAP1 SWAP2 ADD DUP2 MSTORE PUSH1 0x44 SWAP1 SWAP2 ADD SWAP1 SWAP2 MSTORE PUSH1 0x20 DUP1 DUP3 ADD DUP1 MLOAD PUSH1 0x1 PUSH1 0x1 PUSH1 0xE0 SHL SUB AND PUSH4 0x1FFC9A7 PUSH1 0xE0 SHL OR DUP2 MSTORE DUP3 MLOAD PUSH1 0x0 SWAP4 SWAP3 DUP5 SWAP3 DUP4 SWAP3 DUP4 SWAP3 SWAP2 DUP4 SWAP2 SWAP1 DUP11 PUSH2 0x7530 STATICCALL SWAP3 POP RETURNDATASIZE SWAP2 POP PUSH1 0x0 MLOAD SWAP1 POP DUP3 DUP1 ISZERO PUSH2 0xAA9 JUMPI POP PUSH1 0x20 DUP3 LT ISZERO JUMPDEST DUP1 ISZERO PUSH2 0xAB5 JUMPI POP PUSH1 0x0 DUP2 GT JUMPDEST SWAP8 SWAP7 POP POP POP POP POP POP POP JUMP JUMPDEST PUSH1 0x60 PUSH2 0xACF DUP5 DUP5 PUSH1 0x0 DUP6 PUSH2 0xAD7 JUMP JUMPDEST SWAP5 SWAP4 POP POP POP POP JUMP JUMPDEST PUSH1 0x60 DUP3 SELFBALANCE LT ISZERO PUSH2 0xB4F JUMPI PUSH1 0x40 MLOAD PUSH3 0x461BCD PUSH1 0xE5 SHL DUP2 MSTORE PUSH1 0x20 PUSH1 0x4 DUP3 ADD MSTORE PUSH1 0x26 PUSH1 0x24 DUP3 ADD MSTORE PUSH32 0x416464726573733A20696E73756666696369656E742062616C616E636520666F PUSH1 0x44 DUP3 ADD MSTORE PUSH32 0x722063616C6C0000000000000000000000000000000000000000000000000000 PUSH1 0x64 DUP3 ADD MSTORE PUSH1 0x84 ADD PUSH2 0x2BA JUMP JUMPDEST PUSH1 0x0 DUP1 DUP7 PUSH1 0x1 PUSH1 0x1 PUSH1 0xA0 SHL SUB AND DUP6 DUP8 PUSH1 0x40 MLOAD PUSH2 0xB6B SWAP2 SWAP1 PUSH2 0x1666 JUMP JUMPDEST PUSH1 0x0 PUSH1 0x40 MLOAD DUP1 DUP4 SUB DUP2 DUP6 DUP8 GAS CALL SWAP3 POP POP POP RETURNDATASIZE DUP1 PUSH1 0x0 DUP2 EQ PUSH2 0xBA8 JUMPI PUSH1 0x40 MLOAD SWAP2 POP PUSH1 0x1F NOT PUSH1 0x3F RETURNDATASIZE ADD AND DUP3 ADD PUSH1 0x40 MSTORE RETURNDATASIZE DUP3 MSTORE RETURNDATASIZE PUSH1 0x0 PUSH1 0x20 DUP5 ADD RETURNDATACOPY PUSH2 0xBAD JUMP JUMPDEST PUSH1 0x60 SWAP2 POP JUMPDEST POP SWAP2 POP SWAP2 POP PUSH2 0xAB5 DUP8 DUP4 DUP4 DUP8 PUSH1 0x60 DUP4 ISZERO PUSH2 0xC28 JUMPI DUP3 MLOAD PUSH1 0x0 SUB PUSH2 0xC21 JUMPI PUSH1 0x1 PUSH1 0x1 PUSH1 0xA0 SHL SUB DUP6 AND EXTCODESIZE PUSH2 0xC21 JUMPI PUSH1 0x40 MLOAD PUSH3 0x461BCD PUSH1 0xE5 SHL DUP2 MSTORE PUSH1 0x20 PUSH1 0x4 DUP3 ADD MSTORE PUSH1 0x1D PUSH1 0x24 DUP3 ADD MSTORE PUSH32 0x416464726573733A2063616C6C20746F206E6F6E2D636F6E7472616374000000 PUSH1 0x44 DUP3 ADD MSTORE PUSH1 0x64 ADD PUSH2 0x2BA JUMP JUMPDEST POP DUP2 PUSH2 0xACF JUMP JUMPDEST PUSH2 0xACF DUP4 DUP4 DUP2 MLOAD ISZERO PUSH2 0xC3D JUMPI DUP2 MLOAD DUP1 DUP4 PUSH1 0x20 ADD REVERT JUMPDEST DUP1 PUSH1 0x40 MLOAD PUSH3 0x461BCD PUSH1 0xE5 SHL DUP2 MSTORE PUSH1 0x4 ADD PUSH2 0x2BA SWAP2 SWAP1 PUSH2 0x14DB JUMP JUMPDEST DUP1 CALLDATALOAD PUSH8 0xFFFFFFFFFFFFFFFF DUP2 AND DUP2 EQ PUSH2 0xC6F JUMPI PUSH1 0x0 DUP1 REVERT JUMPDEST SWAP2 SWAP1 POP JUMP JUMPDEST PUSH4 0x4E487B71 PUSH1 0xE0 SHL PUSH1 0x0 MSTORE PUSH1 0x41 PUSH1 0x4 MSTORE PUSH1 0x24 PUSH1 0x0 REVERT JUMPDEST PUSH1 0x40 MLOAD PUSH1 0xA0 DUP2 ADD PUSH8 0xFFFFFFFFFFFFFFFF DUP2 GT DUP3 DUP3 LT OR ISZERO PUSH2 0xCAD JUMPI PUSH2 0xCAD PUSH2 0xC74 JUMP JUMPDEST PUSH1 0x40 MSTORE SWAP1 JUMP JUMPDEST PUSH1 0x40 MLOAD PUSH1 0x1F DUP3 ADD PUSH1 0x1F NOT AND DUP2 ADD PUSH8 0xFFFFFFFFFFFFFFFF DUP2 GT DUP3 DUP3 LT OR ISZERO PUSH2 0xCDC JUMPI PUSH2 0xCDC PUSH2 0xC74 JUMP JUMPDEST PUSH1 0x40 MSTORE SWAP2 SWAP1 POP JUMP JUMPDEST PUSH1 0x0 DUP3 PUSH1 0x1F DUP4 ADD SLT PUSH2 0xCF5 JUMPI PUSH1 0x0 DUP1 REVERT JUMPDEST DUP2 CALLDATALOAD PUSH8 0xFFFFFFFFFFFFFFFF DUP2 GT ISZERO PUSH2 0xD0F JUMPI PUSH2 0xD0F PUSH2 0xC74 JUMP JUMPDEST PUSH2 0xD22 PUSH1 0x1F DUP3 ADD PUSH1 0x1F NOT AND PUSH1 0x20 ADD PUSH2 0xCB3 JUMP JUMPDEST DUP2 DUP2 MSTORE DUP5 PUSH1 0x20 DUP4 DUP7 ADD ADD GT ISZERO PUSH2 0xD37 JUMPI PUSH1 0x0 DUP1 REVERT JUMPDEST DUP2 PUSH1 0x20 DUP6 ADD PUSH1 0x20 DUP4 ADD CALLDATACOPY PUSH1 0x0 SWAP2 DUP2 ADD PUSH1 0x20 ADD SWAP2 SWAP1 SWAP2 MSTORE SWAP4 SWAP3 POP POP POP JUMP JUMPDEST DUP1 CALLDATALOAD PUSH1 0x1 PUSH1 0x1 PUSH1 0xA0 SHL SUB DUP2 AND DUP2 EQ PUSH2 0xC6F JUMPI PUSH1 0x0 DUP1 REVERT JUMPDEST PUSH1 0x0 PUSH1 0x40 DUP3 DUP5 SUB SLT ISZERO PUSH2 0xD7D JUMPI PUSH1 0x0 DUP1 REVERT JUMPDEST PUSH1 0x40 MLOAD PUSH1 0x40 DUP2 ADD DUP2 DUP2 LT PUSH8 0xFFFFFFFFFFFFFFFF DUP3 GT OR ISZERO PUSH2 0xDA0 JUMPI PUSH2 0xDA0 PUSH2 0xC74 JUMP JUMPDEST PUSH1 0x40 MSTORE SWAP1 POP DUP1 PUSH2 0xDAF DUP4 PUSH2 0xD54 JUMP JUMPDEST DUP2 MSTORE PUSH1 0x20 DUP4 ADD CALLDATALOAD PUSH1 0x20 DUP3 ADD MSTORE POP SWAP3 SWAP2 POP POP JUMP JUMPDEST PUSH1 0x0 DUP3 PUSH1 0x1F DUP4 ADD SLT PUSH2 0xDD3 JUMPI PUSH1 0x0 DUP1 REVERT JUMPDEST DUP2 CALLDATALOAD PUSH1 0x20 PUSH8 0xFFFFFFFFFFFFFFFF DUP3 GT ISZERO PUSH2 0xDEF JUMPI PUSH2 0xDEF PUSH2 0xC74 JUMP JUMPDEST PUSH2 0xDFD DUP2 DUP4 PUSH1 0x5 SHL ADD PUSH2 0xCB3 JUMP JUMPDEST DUP3 DUP2 MSTORE PUSH1 0x6 SWAP3 SWAP1 SWAP3 SHL DUP5 ADD DUP2 ADD SWAP2 DUP2 DUP2 ADD SWAP1 DUP7 DUP5 GT ISZERO PUSH2 0xE1C JUMPI PUSH1 0x0 DUP1 REVERT JUMPDEST DUP3 DUP7 ADD JUMPDEST DUP5 DUP2 LT ISZERO PUSH2 0xE40 JUMPI PUSH2 0xE32 DUP9 DUP3 PUSH2 0xD6B JUMP JUMPDEST DUP4 MSTORE SWAP2 DUP4 ADD SWAP2 PUSH1 0x40 ADD PUSH2 0xE20 JUMP JUMPDEST POP SWAP7 SWAP6 POP POP POP POP POP POP JUMP JUMPDEST PUSH1 0x0 DUP1 PUSH1 0x40 DUP4 DUP6 SUB SLT ISZERO PUSH2 0xE5E JUMPI PUSH1 0x0 DUP1 REVERT JUMPDEST PUSH2 0xE67 DUP4 PUSH2 0xC57 JUMP JUMPDEST SWAP2 POP PUSH1 0x20 DUP4 ADD CALLDATALOAD PUSH8 0xFFFFFFFFFFFFFFFF DUP1 DUP3 GT ISZERO PUSH2 0xE84 JUMPI PUSH1 0x0 DUP1 REVERT JUMPDEST SWAP1 DUP5 ADD SWAP1 PUSH1 0xA0 DUP3 DUP8 SUB SLT ISZERO PUSH2 0xE98 JUMPI PUSH1 0x0 DUP1 REVERT JUMPDEST PUSH2 0xEA0 PUSH2 0xC8A JUMP JUMPDEST DUP3 CALLDATALOAD DUP3 DUP2 GT ISZERO PUSH2 0xEAF JUMPI PUSH1 0x0 DUP1 REVERT JUMPDEST PUSH2 0xEBB DUP9 DUP3 DUP7 ADD PUSH2 0xCE4 JUMP JUMPDEST DUP3 MSTORE POP PUSH1 0x20 DUP4 ADD CALLDATALOAD DUP3 DUP2 GT ISZERO PUSH2 0xED0 JUMPI PUSH1 0x0 DUP1 REVERT JUMPDEST PUSH2 0xEDC DUP9 DUP3 DUP7 ADD PUSH2 0xCE4 JUMP JUMPDEST PUSH1 0x20 DUP4 ADD MSTORE POP PUSH1 0x40 DUP4 ADD CALLDATALOAD DUP3 DUP2 GT ISZERO PUSH2 0xEF4 JUMPI PUSH1 0x0 DUP1 REVERT JUMPDEST PUSH2 0xF00 DUP9 DUP3 DUP7 ADD PUSH2 0xDC2 JUMP JUMPDEST PUSH1 0x40 DUP4 ADD MSTORE POP PUSH2 0xF12 PUSH1 0x60 DUP5 ADD PUSH2 0xD54 JUMP JUMPDEST PUSH1 0x60 DUP3 ADD MSTORE PUSH1 0x80 DUP4 ADD CALLDATALOAD DUP3 DUP2 GT ISZERO PUSH2 0xF29 JUMPI PUSH1 0x0 DUP1 REVERT JUMPDEST PUSH2 0xF35 DUP9 DUP3 DUP7 ADD PUSH2 0xCE4 JUMP JUMPDEST PUSH1 0x80 DUP4 ADD MSTORE POP DUP1 SWAP4 POP POP POP POP SWAP3 POP SWAP3 SWAP1 POP JUMP JUMPDEST PUSH1 0x0 PUSH1 0xA0 DUP3 DUP5 SUB SLT ISZERO PUSH2 0xF5A JUMPI PUSH1 0x0 DUP1 REVERT JUMPDEST POP SWAP2 SWAP1 POP JUMP JUMPDEST PUSH1 0x0 DUP1 PUSH1 0x0 DUP1 PUSH1 0x80 DUP6 DUP8 SUB SLT ISZERO PUSH2 0xF76 JUMPI PUSH1 0x0 DUP1 REVERT JUMPDEST DUP5 CALLDATALOAD PUSH8 0xFFFFFFFFFFFFFFFF DUP2 GT ISZERO PUSH2 0xF8D JUMPI PUSH1 0x0 DUP1 REVERT JUMPDEST PUSH2 0xF99 DUP8 DUP3 DUP9 ADD PUSH2 0xF48 JUMP JUMPDEST SWAP5 POP POP PUSH1 0x20 DUP6 ADD CALLDATALOAD PUSH2 0xFFFF DUP2 AND DUP2 EQ PUSH2 0xFB1 JUMPI PUSH1 0x0 DUP1 REVERT JUMPDEST SWAP3 POP PUSH1 0x40 DUP6 ADD CALLDATALOAD SWAP2 POP PUSH2 0xFC6 PUSH1 0x60 DUP7 ADD PUSH2 0xD54 JUMP JUMPDEST SWAP1 POP SWAP3 SWAP6 SWAP2 SWAP5 POP SWAP3 POP JUMP JUMPDEST PUSH1 0x0 JUMPDEST DUP4 DUP2 LT ISZERO PUSH2 0xFEC JUMPI DUP2 DUP2 ADD MLOAD DUP4 DUP3 ADD MSTORE PUSH1 0x20 ADD PUSH2 0xFD4 JUMP JUMPDEST POP POP PUSH1 0x0 SWAP2 ADD MSTORE JUMP JUMPDEST PUSH1 0x0 DUP2 MLOAD DUP1 DUP5 MSTORE PUSH2 0x100D DUP2 PUSH1 0x20 DUP7 ADD PUSH1 0x20 DUP7 ADD PUSH2 0xFD1 JUMP JUMPDEST PUSH1 0x1F ADD PUSH1 0x1F NOT AND SWAP3 SWAP1 SWAP3 ADD PUSH1 0x20 ADD SWAP3 SWAP2 POP POP JUMP JUMPDEST DUP4 ISZERO ISZERO DUP2 MSTORE PUSH1 0x60 PUSH1 0x20 DUP3 ADD MSTORE PUSH1 0x0 PUSH2 0x103C PUSH1 0x60 DUP4 ADD DUP6 PUSH2 0xFF5 JUMP JUMPDEST SWAP1 POP DUP3 PUSH1 0x40 DUP4 ADD MSTORE SWAP5 SWAP4 POP POP POP POP JUMP JUMPDEST PUSH1 0x0 DUP1 PUSH1 0x40 DUP4 DUP6 SUB SLT ISZERO PUSH2 0x105F JUMPI PUSH1 0x0 DUP1 REVERT JUMPDEST PUSH2 0x1068 DUP4 PUSH2 0xC57 JUMP JUMPDEST SWAP2 POP PUSH2 0x1076 PUSH1 0x20 DUP5 ADD PUSH2 0xD54 JUMP JUMPDEST SWAP1 POP SWAP3 POP SWAP3 SWAP1 POP JUMP JUMPDEST PUSH1 0x0 DUP1 PUSH1 0x40 DUP4 DUP6 SUB SLT ISZERO PUSH2 0x1092 JUMPI PUSH1 0x0 DUP1 REVERT JUMPDEST PUSH2 0x109B DUP4 PUSH2 0xC57 JUMP JUMPDEST SWAP2 POP PUSH1 0x20 DUP4 ADD CALLDATALOAD PUSH8 0xFFFFFFFFFFFFFFFF DUP2 GT ISZERO PUSH2 0x10B7 JUMPI PUSH1 0x0 DUP1 REVERT JUMPDEST PUSH2 0x10C3 DUP6 DUP3 DUP7 ADD PUSH2 0xF48 JUMP JUMPDEST SWAP2 POP POP SWAP3 POP SWAP3 SWAP1 POP JUMP JUMPDEST PUSH1 0x0 PUSH1 0x20 DUP3 DUP5 SUB SLT ISZERO PUSH2 0x10DF JUMPI PUSH1 0x0 DUP1 REVERT JUMPDEST PUSH2 0x758 DUP3 PUSH2 0xC57 JUMP JUMPDEST PUSH1 0x20 DUP1 DUP3 MSTORE DUP3 MLOAD DUP3 DUP3 ADD DUP2 SWAP1 MSTORE PUSH1 0x0 SWAP2 SWAP1 DUP5 DUP3 ADD SWAP1 PUSH1 0x40 DUP6 ADD SWAP1 DUP5 JUMPDEST DUP2 DUP2 LT ISZERO PUSH2 0x1129 JUMPI DUP4 MLOAD PUSH1 0x1 PUSH1 0x1 PUSH1 0xA0 SHL SUB AND DUP4 MSTORE SWAP3 DUP5 ADD SWAP3 SWAP2 DUP5 ADD SWAP2 PUSH1 0x1 ADD PUSH2 0x1104 JUMP JUMPDEST POP SWAP1 SWAP7 SWAP6 POP POP POP POP POP POP JUMP JUMPDEST PUSH1 0x0 PUSH1 0xA0 DUP3 CALLDATASIZE SUB SLT ISZERO PUSH2 0x1147 JUMPI PUSH1 0x0 DUP1 REVERT JUMPDEST PUSH2 0x114F PUSH2 0xC8A JUMP JUMPDEST DUP3 CALLDATALOAD DUP2 MSTORE PUSH2 0x115F PUSH1 0x20 DUP5 ADD PUSH2 0xC57 JUMP JUMPDEST PUSH1 0x20 DUP3 ADD MSTORE PUSH1 0x40 DUP4 ADD CALLDATALOAD PUSH8 0xFFFFFFFFFFFFFFFF DUP1 DUP3 GT ISZERO PUSH2 0x117F JUMPI PUSH1 0x0 DUP1 REVERT JUMPDEST PUSH2 0x118B CALLDATASIZE DUP4 DUP8 ADD PUSH2 0xCE4 JUMP JUMPDEST PUSH1 0x40 DUP5 ADD MSTORE PUSH1 0x60 DUP6 ADD CALLDATALOAD SWAP2 POP DUP1 DUP3 GT ISZERO PUSH2 0x11A4 JUMPI PUSH1 0x0 DUP1 REVERT JUMPDEST PUSH2 0x11B0 CALLDATASIZE DUP4 DUP8 ADD PUSH2 0xCE4 JUMP JUMPDEST PUSH1 0x60 DUP5 ADD MSTORE PUSH1 0x80 DUP6 ADD CALLDATALOAD SWAP2 POP DUP1 DUP3 GT ISZERO PUSH2 0x11C9 JUMPI PUSH1 0x0 DUP1 REVERT JUMPDEST POP PUSH2 0x11D6 CALLDATASIZE DUP3 DUP7 ADD PUSH2 0xDC2 JUMP JUMPDEST PUSH1 0x80 DUP4 ADD MSTORE POP SWAP3 SWAP2 POP POP JUMP JUMPDEST PUSH1 0x0 DUP1 DUP4 CALLDATALOAD PUSH1 0x1E NOT DUP5 CALLDATASIZE SUB ADD DUP2 SLT PUSH2 0x11F9 JUMPI PUSH1 0x0 DUP1 REVERT JUMPDEST DUP4 ADD DUP1 CALLDATALOAD SWAP2 POP PUSH8 0xFFFFFFFFFFFFFFFF DUP3 GT ISZERO PUSH2 0x1214 JUMPI PUSH1 0x0 DUP1 REVERT JUMPDEST PUSH1 0x20 ADD SWAP2 POP CALLDATASIZE DUP2 SWAP1 SUB DUP3 SGT ISZERO PUSH2 0x1229 JUMPI PUSH1 0x0 DUP1 REVERT JUMPDEST SWAP3 POP SWAP3 SWAP1 POP JUMP JUMPDEST DUP2 DUP4 MSTORE DUP2 DUP2 PUSH1 0x20 DUP6 ADD CALLDATACOPY POP PUSH1 0x0 DUP3 DUP3 ADD PUSH1 0x20 SWAP1 DUP2 ADD SWAP2 SWAP1 SWAP2 MSTORE PUSH1 0x1F SWAP1 SWAP2 ADD PUSH1 0x1F NOT AND SWAP1 SWAP2 ADD ADD SWAP1 JUMP JUMPDEST PUSH1 0x20 DUP2 MSTORE PUSH1 0x0 PUSH2 0xACF PUSH1 0x20 DUP4 ADD DUP5 DUP7 PUSH2 0x1230 JUMP JUMPDEST PUSH1 0x0 PUSH1 0x20 DUP3 DUP5 SUB SLT ISZERO PUSH2 0x127F JUMPI PUSH1 0x0 DUP1 REVERT JUMPDEST POP CALLDATALOAD SWAP2 SWAP1 POP JUMP JUMPDEST PUSH1 0x0 DUP1 DUP4 CALLDATALOAD PUSH1 0x1E NOT DUP5 CALLDATASIZE SUB ADD DUP2 SLT PUSH2 0x129D JUMPI PUSH1 0x0 DUP1 REVERT JUMPDEST DUP4 ADD PUSH1 0x20 DUP2 ADD SWAP3 POP CALLDATALOAD SWAP1 POP PUSH8 0xFFFFFFFFFFFFFFFF DUP2 GT ISZERO PUSH2 0x12BD JUMPI PUSH1 0x0 DUP1 REVERT JUMPDEST DUP1 CALLDATASIZE SUB DUP3 SGT ISZERO PUSH2 0x1229 JUMPI PUSH1 0x0 DUP1 REVERT JUMPDEST DUP2 DUP4 MSTORE PUSH1 0x0 PUSH1 0x20 DUP1 DUP6 ADD SWAP5 POP DUP3 PUSH1 0x0 JUMPDEST DUP6 DUP2 LT ISZERO PUSH2 0x1312 JUMPI PUSH1 0x1 PUSH1 0x1 PUSH1 0xA0 SHL SUB PUSH2 0x12F5 DUP4 PUSH2 0xD54 JUMP JUMPDEST AND DUP8 MSTORE DUP2 DUP4 ADD CALLDATALOAD DUP4 DUP9 ADD MSTORE PUSH1 0x40 SWAP7 DUP8 ADD SWAP7 SWAP1 SWAP2 ADD SWAP1 PUSH1 0x1 ADD PUSH2 0x12DC JUMP JUMPDEST POP SWAP5 SWAP6 SWAP5 POP POP POP POP POP JUMP JUMPDEST PUSH1 0x20 DUP2 MSTORE PUSH1 0x0 PUSH2 0x132D DUP4 DUP5 PUSH2 0x1286 JUMP JUMPDEST PUSH1 0xA0 PUSH1 0x20 DUP6 ADD MSTORE PUSH2 0x1342 PUSH1 0xC0 DUP6 ADD DUP3 DUP5 PUSH2 0x1230 JUMP JUMPDEST SWAP2 POP POP PUSH2 0x1352 PUSH1 0x20 DUP6 ADD DUP6 PUSH2 0x1286 JUMP JUMPDEST PUSH1 0x1F NOT DUP1 DUP7 DUP6 SUB ADD PUSH1 0x40 DUP8 ADD MSTORE PUSH2 0x136A DUP5 DUP4 DUP6 PUSH2 0x1230 JUMP JUMPDEST SWAP4 POP PUSH1 0x40 DUP8 ADD CALLDATALOAD SWAP3 POP PUSH1 0x1E NOT DUP8 CALLDATASIZE SUB ADD DUP4 SLT PUSH2 0x1385 JUMPI PUSH1 0x0 DUP1 REVERT JUMPDEST PUSH1 0x20 SWAP3 DUP8 ADD SWAP3 DUP4 ADD SWAP3 CALLDATALOAD SWAP2 POP PUSH8 0xFFFFFFFFFFFFFFFF DUP3 GT ISZERO PUSH2 0x13A6 JUMPI PUSH1 0x0 DUP1 REVERT JUMPDEST DUP2 PUSH1 0x6 SHL CALLDATASIZE SUB DUP4 SGT ISZERO PUSH2 0x13B8 JUMPI PUSH1 0x0 DUP1 REVERT JUMPDEST DUP1 DUP7 DUP6 SUB ADD PUSH1 0x60 DUP8 ADD MSTORE PUSH2 0x13CD DUP5 DUP4 DUP6 PUSH2 0x12CC JUMP JUMPDEST SWAP4 POP PUSH2 0x13DB PUSH1 0x60 DUP9 ADD PUSH2 0xD54 JUMP JUMPDEST PUSH1 0x1 PUSH1 0x1 PUSH1 0xA0 SHL SUB DUP2 AND PUSH1 0x80 DUP9 ADD MSTORE SWAP3 POP PUSH2 0x13F9 PUSH1 0x80 DUP9 ADD DUP9 PUSH2 0x1286 JUMP JUMPDEST SWAP4 POP SWAP2 POP DUP1 DUP7 DUP6 SUB ADD PUSH1 0xA0 DUP8 ADD MSTORE POP PUSH2 0x1413 DUP4 DUP4 DUP4 PUSH2 0x1230 JUMP JUMPDEST SWAP7 SWAP6 POP POP POP POP POP POP JUMP JUMPDEST PUSH1 0x0 DUP1 DUP4 CALLDATALOAD PUSH1 0x1E NOT DUP5 CALLDATASIZE SUB ADD DUP2 SLT PUSH2 0x1434 JUMPI PUSH1 0x0 DUP1 REVERT JUMPDEST DUP4 ADD DUP1 CALLDATALOAD SWAP2 POP PUSH8 0xFFFFFFFFFFFFFFFF DUP3 GT ISZERO PUSH2 0x144F JUMPI PUSH1 0x0 DUP1 REVERT JUMPDEST PUSH1 0x20 ADD SWAP2 POP PUSH1 0x6 DUP2 SWAP1 SHL CALLDATASIZE SUB DUP3 SGT ISZERO PUSH2 0x1229 JUMPI PUSH1 0x0 DUP1 REVERT JUMPDEST PUSH1 0x0 PUSH1 0x40 DUP3 DUP5 SUB SLT ISZERO PUSH2 0x1479 JUMPI PUSH1 0x0 DUP1 REVERT JUMPDEST PUSH2 0x758 DUP4 DUP4 PUSH2 0xD6B JUMP JUMPDEST PUSH4 0x4E487B71 PUSH1 0xE0 SHL PUSH1 0x0 MSTORE PUSH1 0x32 PUSH1 0x4 MSTORE PUSH1 0x24 PUSH1 0x0 REVERT JUMPDEST PUSH1 0x0 PUSH1 0x20 DUP3 DUP5 SUB SLT ISZERO PUSH2 0x14AB JUMPI PUSH1 0x0 DUP1 REVERT JUMPDEST PUSH2 0x758 DUP3 PUSH2 0xD54 JUMP JUMPDEST PUSH1 0x0 PUSH1 0x1 DUP3 ADD PUSH2 0x14D4 JUMPI PUSH4 0x4E487B71 PUSH1 0xE0 SHL PUSH1 0x0 MSTORE PUSH1 0x11 PUSH1 0x4 MSTORE PUSH1 0x24 PUSH1 0x0 REVERT JUMPDEST POP PUSH1 0x1 ADD SWAP1 JUMP JUMPDEST PUSH1 0x20 DUP2 MSTORE PUSH1 0x0 PUSH2 0x758 PUSH1 0x20 DUP4 ADD DUP5 PUSH2 0xFF5 JUMP JUMPDEST PUSH1 0x0 PUSH1 0x20 DUP1 DUP4 MSTORE DUP4 MLOAD DUP2 DUP5 ADD MSTORE DUP1 DUP5 ADD MLOAD PUSH1 0x40 PUSH8 0xFFFFFFFFFFFFFFFF DUP3 AND DUP2 DUP7 ADD MSTORE DUP1 DUP7 ADD MLOAD SWAP2 POP PUSH1 0xA0 PUSH1 0x60 DUP7 ADD MSTORE PUSH2 0x152A PUSH1 0xC0 DUP7 ADD DUP4 PUSH2 0xFF5 JUMP JUMPDEST SWAP2 POP PUSH1 0x60 DUP7 ADD MLOAD PUSH1 0x1F NOT DUP1 DUP8 DUP6 SUB ADD PUSH1 0x80 DUP9 ADD MSTORE PUSH2 0x1548 DUP5 DUP4 PUSH2 0xFF5 JUMP JUMPDEST PUSH1 0x80 DUP10 ADD MLOAD DUP9 DUP3 SUB SWAP1 SWAP3 ADD PUSH1 0xA0 DUP10 ADD MSTORE DUP2 MLOAD DUP1 DUP3 MSTORE SWAP2 DUP7 ADD SWAP5 POP PUSH1 0x0 SWAP3 POP DUP6 ADD SWAP1 JUMPDEST DUP1 DUP4 LT ISZERO PUSH2 0x159C JUMPI DUP5 MLOAD DUP1 MLOAD PUSH1 0x1 PUSH1 0x1 PUSH1 0xA0 SHL SUB AND DUP4 MSTORE DUP7 ADD MLOAD DUP7 DUP4 ADD MSTORE SWAP4 DUP6 ADD SWAP4 PUSH1 0x1 SWAP3 SWAP1 SWAP3 ADD SWAP2 SWAP1 DUP4 ADD SWAP1 PUSH2 0x156A JUMP JUMPDEST POP SWAP8 SWAP7 POP POP POP POP POP POP POP JUMP JUMPDEST PUSH1 0x1 PUSH1 0x1 PUSH1 0xE0 SHL SUB NOT DUP2 CALLDATALOAD DUP2 DUP2 AND SWAP2 PUSH1 0x4 DUP6 LT ISZERO PUSH2 0x15D0 JUMPI DUP1 DUP2 DUP7 PUSH1 0x4 SUB PUSH1 0x3 SHL SHL DUP4 AND AND SWAP3 POP JUMPDEST POP POP SWAP3 SWAP2 POP POP JUMP JUMPDEST PUSH1 0x0 DUP1 DUP6 DUP6 GT ISZERO PUSH2 0x15E8 JUMPI PUSH1 0x0 DUP1 REVERT JUMPDEST DUP4 DUP7 GT ISZERO PUSH2 0x15F5 JUMPI PUSH1 0x0 DUP1 REVERT JUMPDEST POP POP DUP3 ADD SWAP4 SWAP2 SWAP1 SWAP3 SUB SWAP2 POP JUMP JUMPDEST PUSH1 0x0 PUSH1 0x20 DUP3 DUP5 SUB SLT ISZERO PUSH2 0x1614 JUMPI PUSH1 0x0 DUP1 REVERT JUMPDEST PUSH1 0x40 MLOAD PUSH1 0x20 DUP2 ADD DUP2 DUP2 LT PUSH8 0xFFFFFFFFFFFFFFFF DUP3 GT OR ISZERO PUSH2 0x1637 JUMPI PUSH2 0x1637 PUSH2 0xC74 JUMP JUMPDEST PUSH1 0x40 MSTORE SWAP2 CALLDATALOAD DUP3 MSTORE POP SWAP2 SWAP1 POP JUMP JUMPDEST PUSH1 0x0 PUSH1 0x20 DUP3 DUP5 SUB SLT ISZERO PUSH2 0x1656 JUMPI PUSH1 0x0 DUP1 REVERT JUMPDEST DUP2 MLOAD DUP1 ISZERO ISZERO DUP2 EQ PUSH2 0x758 JUMPI PUSH1 0x0 DUP1 REVERT JUMPDEST PUSH1 0x0 DUP3 MLOAD PUSH2 0x1678 DUP2 DUP5 PUSH1 0x20 DUP8 ADD PUSH2 0xFD1 JUMP JUMPDEST SWAP2 SWAP1 SWAP2 ADD SWAP3 SWAP2 POP POP JUMP INVALID LOG2 PUSH5 0x6970667358 0x22 SLT KECCAK256 0xEE SIGNEXTEND SDIV 0x49 PUSH14 0x3AB3ACB216137AF420E5597DA8A8 0xB4 MSTORE8 DUP3 0xC8 0x4F 0xE8 0xDC 0xBF LOG2 MOD SWAP2 0xD7 0x28 PUSH5 0x736F6C6343 STOP ADDMOD SGT STOP CALLER "},"methodIdentifiers":{"DEFAULT_GAS_LIMIT()":"d6be695a","GAS_FOR_CALL_EXACT_CHECK()":"ee18e0d3","ccipSend(uint64,(bytes,bytes,(address,uint256)[],address,bytes))":"96f4e9f9","getFee(uint64,(bytes,bytes,(address,uint256)[],address,bytes))":"20487ded","getOnRamp(uint64)":"a8d87a3b","getSupportedTokens(uint64)":"fbca3b74","isChainSupported(uint64)":"a48a9058","isOffRamp(uint64,address)":"83826b2b","routeMessage((bytes32,uint64,bytes,bytes,(address,uint256)[]),uint16,uint256,address)":"3cf97983"}}}}}