{
  "_format": "hh-sol-artifact-1",
  "contractName": "Sender",
  "sourceName": "contracts/Sender.sol",
  "abi": [
    {
      "inputs": [
        {
          "internalType": "address",
          "name": "_router",
          "type": "address"
        },
        {
          "internalType": "address",
          "name": "_link",
          "type": "address"
        }
      ],
      "stateMutability": "nonpayable",
      "type": "constructor"
    },
    {
      "inputs": [
        {
          "internalType": "uint64",
          "name": "destinationChainSelector",
          "type": "uint64"
        }
      ],
      "name": "DestinationChainNotAllowlisted",
      "type": "error"
    },
    {
      "inputs": [],
      "name": "InvalidReceiverAddress",
      "type": "error"
    },
    {
      "anonymous": false,
      "inputs": [
        {
          "indexed": true,
          "internalType": "bytes32",
          "name": "messageId",
          "type": "bytes32"
        },
        {
          "indexed": true,
          "internalType": "uint64",
          "name": "destinationChainSelector",
          "type": "uint64"
        },
        {
          "indexed": false,
          "internalType": "address",
          "name": "receiver",
          "type": "address"
        },
        {
          "indexed": false,
          "internalType": "uint256",
          "name": "iterations",
          "type": "uint256"
        },
        {
          "indexed": false,
          "internalType": "address",
          "name": "feeToken",
          "type": "address"
        },
        {
          "indexed": false,
          "internalType": "uint256",
          "name": "fees",
          "type": "uint256"
        }
      ],
      "name": "MessageSent",
      "type": "event"
    },
    {
      "anonymous": false,
      "inputs": [
        {
          "indexed": true,
          "internalType": "address",
          "name": "from",
          "type": "address"
        },
        {
          "indexed": true,
          "internalType": "address",
          "name": "to",
          "type": "address"
        }
      ],
      "name": "OwnershipTransferRequested",
      "type": "event"
    },
    {
      "anonymous": false,
      "inputs": [
        {
          "indexed": true,
          "internalType": "address",
          "name": "from",
          "type": "address"
        },
        {
          "indexed": true,
          "internalType": "address",
          "name": "to",
          "type": "address"
        }
      ],
      "name": "OwnershipTransferred",
      "type": "event"
    },
    {
      "inputs": [],
      "name": "acceptOwnership",
      "outputs": [],
      "stateMutability": "nonpayable",
      "type": "function"
    },
    {
      "inputs": [
        {
          "internalType": "uint64",
          "name": "_destinationChainSelector",
          "type": "uint64"
        },
        {
          "internalType": "bool",
          "name": "allowed",
          "type": "bool"
        }
      ],
      "name": "allowlistDestinationChain",
      "outputs": [],
      "stateMutability": "nonpayable",
      "type": "function"
    },
    {
      "inputs": [
        {
          "internalType": "uint64",
          "name": "",
          "type": "uint64"
        }
      ],
      "name": "allowlistedDestinationChains",
      "outputs": [
        {
          "internalType": "bool",
          "name": "",
          "type": "bool"
        }
      ],
      "stateMutability": "view",
      "type": "function"
    },
    {
      "inputs": [],
      "name": "owner",
      "outputs": [
        {
          "internalType": "address",
          "name": "",
          "type": "address"
        }
      ],
      "stateMutability": "view",
      "type": "function"
    },
    {
      "inputs": [
        {
          "internalType": "uint64",
          "name": "_destinationChainSelector",
          "type": "uint64"
        },
        {
          "internalType": "address",
          "name": "_receiver",
          "type": "address"
        },
        {
          "internalType": "uint256",
          "name": "_iterations",
          "type": "uint256"
        },
        {
          "internalType": "uint256",
          "name": "_gasLimit",
          "type": "uint256"
        }
      ],
      "name": "sendMessagePayLINK",
      "outputs": [
        {
          "internalType": "bytes32",
          "name": "messageId",
          "type": "bytes32"
        }
      ],
      "stateMutability": "nonpayable",
      "type": "function"
    },
    {
      "inputs": [
        {
          "internalType": "address",
          "name": "to",
          "type": "address"
        }
      ],
      "name": "transferOwnership",
      "outputs": [],
      "stateMutability": "nonpayable",
      "type": "function"
    }
  ],
  "bytecode": "0x608060405234801561001057600080fd5b50604051610f1d380380610f1d83398101604081905261002f916101b1565b33806000816100855760405162461bcd60e51b815260206004820152601860248201527f43616e6e6f7420736574206f776e657220746f207a65726f000000000000000060448201526064015b60405180910390fd5b600080546001600160a01b0319166001600160a01b03848116919091179091558116156100b5576100b5816100ec565b5050600380546001600160a01b039384166001600160a01b03199182161790915560048054949093169316929092179055506101e4565b336001600160a01b038216036101445760405162461bcd60e51b815260206004820152601760248201527f43616e6e6f74207472616e7366657220746f2073656c66000000000000000000604482015260640161007c565b600180546001600160a01b0319166001600160a01b0383811691821790925560008054604051929316917fed8889f560326eb138920d842192f0eb3dd22b4f139c87a2c57538e05bae12789190a350565b80516001600160a01b03811681146101ac57600080fd5b919050565b600080604083850312156101c457600080fd5b6101cd83610195565b91506101db60208401610195565b90509250929050565b610d2a806101f36000396000f3fe608060405234801561001057600080fd5b50600436106100725760003560e01c80638da5cb5b116100505780638da5cb5b146100da57806396d3b83d146100f5578063f2fde38b1461010857600080fd5b80637361d6611461007757806375c67c661461009d57806379ba5097146100d0575b600080fd5b61008a610085366004610aa1565b61011b565b6040519081526020015b60405180910390f35b6100c06100ab366004610ae3565b60026020526000908152604090205460ff1681565b6040519015158152602001610094565b6100d8610536565b005b6000546040516001600160a01b039091168152602001610094565b6100d8610103366004610b13565b6105f4565b6100d8610116366004610b4a565b610628565b600061012561063c565b67ffffffffffffffff8516600090815260026020526040902054859060ff1661018b576040517f0a503cdb00000000000000000000000000000000000000000000000000000000815267ffffffffffffffff821660048201526024015b60405180910390fd5b846001600160a01b0381166101cc576040517fa05ff47e00000000000000000000000000000000000000000000000000000000815260040160405180910390fd5b6040805160a081019091526001600160a01b03871660c08201526000908060e0810160405160208183030381529060405281526020018760405160200161021591815260200190565b60408051601f198184030181529190528152602001600060405190808252806020026020018201604052801561027157816020015b604080518082019091526000808252602082015281526020019060019003908161024a5790505b5081526003546001600160a01b0316602080830191909152604080518083018252899052805160248082018b9052825180830390910181526044909101825291820180517bffffffffffffffffffffffffffffffffffffffffffffffffffffffff167f97a657c90000000000000000000000000000000000000000000000000000000017905290910152600480546040517f20487ded0000000000000000000000000000000000000000000000000000000081529293506001600160a01b03169160009183916320487ded9161034b918e91889101610bb5565b602060405180830381865afa158015610368573d6000803e3d6000fd5b505050506040513d601f19601f8201168201806040525081019061038c9190610c8f565b6003549091506103a7906001600160a01b0316333084610698565b6003546040517f095ea7b30000000000000000000000000000000000000000000000000000000081526001600160a01b038481166004830152602482018490529091169063095ea7b3906044016020604051808303816000875af1158015610413573d6000803e3d6000fd5b505050506040513d601f19601f820116820180604052508101906104379190610ca8565b506040517f96f4e9f90000000000000000000000000000000000000000000000000000000081526001600160a01b038316906396f4e9f99061047f908d908790600401610bb5565b6020604051808303816000875af115801561049e573d6000803e3d6000fd5b505050506040513d601f19601f820116820180604052508101906104c29190610c8f565b600354604080516001600160a01b03808e168252602082018d9052909216908201526060810183905290965067ffffffffffffffff8b169087907feea8a479f07983d1364c4330c9bf3442a1cd421b79b16909bcc1867188ea676b9060800160405180910390a35050505050949350505050565b6001546001600160a01b031633146105905760405162461bcd60e51b815260206004820152601660248201527f4d7573742062652070726f706f736564206f776e6572000000000000000000006044820152606401610182565b600080543373ffffffffffffffffffffffffffffffffffffffff19808316821784556001805490911690556040516001600160a01b0390921692909183917f8be0079c531659141344cd1fd0a4f28419497f9722a3daafe3b4186f6b6457e091a350565b6105fc61063c565b67ffffffffffffffff919091166000908152600260205260409020805460ff1916911515919091179055565b61063061063c565b61063981610726565b50565b6000546001600160a01b031633146106965760405162461bcd60e51b815260206004820152601660248201527f4f6e6c792063616c6c61626c65206279206f776e6572000000000000000000006044820152606401610182565b565b604080516001600160a01b0385811660248301528416604482015260648082018490528251808303909101815260849091019091526020810180517bffffffffffffffffffffffffffffffffffffffffffffffffffffffff167f23b872dd000000000000000000000000000000000000000000000000000000001790526107209085906107dc565b50505050565b336001600160a01b0382160361077e5760405162461bcd60e51b815260206004820152601760248201527f43616e6e6f74207472616e7366657220746f2073656c660000000000000000006044820152606401610182565b6001805473ffffffffffffffffffffffffffffffffffffffff19166001600160a01b0383811691821790925560008054604051929316917fed8889f560326eb138920d842192f0eb3dd22b4f139c87a2c57538e05bae12789190a350565b6000610831826040518060400160405280602081526020017f5361666545524332303a206c6f772d6c6576656c2063616c6c206661696c6564815250856001600160a01b03166108c69092919063ffffffff16565b8051909150156108c1578080602001905181019061084f9190610ca8565b6108c15760405162461bcd60e51b815260206004820152602a60248201527f5361666545524332303a204552433230206f7065726174696f6e20646964206e60448201527f6f742073756363656564000000000000000000000000000000000000000000006064820152608401610182565b505050565b60606108d584846000856108dd565b949350505050565b6060824710156109555760405162461bcd60e51b815260206004820152602660248201527f416464726573733a20696e73756666696369656e742062616c616e636520666f60448201527f722063616c6c00000000000000000000000000000000000000000000000000006064820152608401610182565b600080866001600160a01b031685876040516109719190610cc5565b60006040518083038185875af1925050503d80600081146109ae576040519150601f19603f3d011682016040523d82523d6000602084013e6109b3565b606091505b50915091506109c4878383876109cf565b979650505050505050565b60608315610a3e578251600003610a37576001600160a01b0385163b610a375760405162461bcd60e51b815260206004820152601d60248201527f416464726573733a2063616c6c20746f206e6f6e2d636f6e74726163740000006044820152606401610182565b50816108d5565b6108d58383815115610a535781518083602001fd5b8060405162461bcd60e51b81526004016101829190610ce1565b803567ffffffffffffffff81168114610a8557600080fd5b919050565b80356001600160a01b0381168114610a8557600080fd5b60008060008060808587031215610ab757600080fd5b610ac085610a6d565b9350610ace60208601610a8a565b93969395505050506040820135916060013590565b600060208284031215610af557600080fd5b610afe82610a6d565b9392505050565b801515811461063957600080fd5b60008060408385031215610b2657600080fd5b610b2f83610a6d565b91506020830135610b3f81610b05565b809150509250929050565b600060208284031215610b5c57600080fd5b610afe82610a8a565b60005b83811015610b80578181015183820152602001610b68565b50506000910152565b60008151808452610ba1816020860160208601610b65565b601f01601f19169290920160200192915050565b6000604067ffffffffffffffff8516835260208181850152845160a083860152610be260e0860182610b89565b905081860151603f1980878403016060880152610bff8383610b89565b88860151888203830160808a01528051808352908601945060009350908501905b80841015610c5257845180516001600160a01b0316835286015186830152938501936001939093019290860190610c20565b5060608901516001600160a01b031660a08901526080890151888203830160c08a01529550610c818187610b89565b9a9950505050505050505050565b600060208284031215610ca157600080fd5b5051919050565b600060208284031215610cba57600080fd5b8151610afe81610b05565b60008251610cd7818460208701610b65565b9190910192915050565b602081526000610afe6020830184610b8956fea2646970667358221220ac1abc87ddc02ad9747696153138f9c3e66ca93df53756275b636cfb47f1983264736f6c63430008130033",
  "linkReferences": {},
  "deployedLinkReferences": {}
}